{
  "address": "0x8256e70Ebc544FF7BfE5129A46A64D633Da95697",
  "abi": [
    {
      "inputs": [],
      "stateMutability": "nonpayable",
      "type": "constructor"
    },
    {
      "inputs": [],
      "name": "ZamaProtocolUnsupported",
      "type": "error"
    },
    {
      "anonymous": false,
      "inputs": [
        {
          "indexed": true,
          "internalType": "uint256",
          "name": "submissionId",
          "type": "uint256"
        },
        {
          "indexed": true,
          "internalType": "uint256",
          "name": "examId",
          "type": "uint256"
        },
        {
          "indexed": true,
          "internalType": "address",
          "name": "examinee",
          "type": "address"
        },
        {
          "indexed": false,
          "internalType": "uint256",
          "name": "submittedAt",
          "type": "uint256"
        }
      ],
      "name": "AnswersSubmitted",
      "type": "event"
    },
    {
      "anonymous": false,
      "inputs": [
        {
          "indexed": true,
          "internalType": "uint256",
          "name": "examId",
          "type": "uint256"
        },
        {
          "indexed": true,
          "internalType": "address",
          "name": "examinee",
          "type": "address"
        },
        {
          "indexed": false,
          "internalType": "uint256",
          "name": "submissionId",
          "type": "uint256"
        }
      ],
      "name": "CertificateMinted",
      "type": "event"
    },
    {
      "anonymous": false,
      "inputs": [
        {
          "indexed": true,
          "internalType": "uint256",
          "name": "examId",
          "type": "uint256"
        },
        {
          "indexed": true,
          "internalType": "address",
          "name": "creator",
          "type": "address"
        },
        {
          "indexed": false,
          "internalType": "string",
          "name": "title",
          "type": "string"
        },
        {
          "indexed": false,
          "internalType": "uint32",
          "name": "questionCount",
          "type": "uint32"
        },
        {
          "indexed": false,
          "internalType": "uint32",
          "name": "passingScore",
          "type": "uint32"
        }
      ],
      "name": "ExamCreated",
      "type": "event"
    },
    {
      "anonymous": false,
      "inputs": [
        {
          "indexed": true,
          "internalType": "uint256",
          "name": "submissionId",
          "type": "uint256"
        },
        {
          "indexed": true,
          "internalType": "uint256",
          "name": "examId",
          "type": "uint256"
        },
        {
          "indexed": true,
          "internalType": "address",
          "name": "examinee",
          "type": "address"
        },
        {
          "indexed": false,
          "internalType": "euint32",
          "name": "encryptedScore",
          "type": "bytes32"
        }
      ],
      "name": "ExamGraded",
      "type": "event"
    },
    {
      "inputs": [
        {
          "internalType": "address",
          "name": "",
          "type": "address"
        },
        {
          "internalType": "uint256",
          "name": "",
          "type": "uint256"
        }
      ],
      "name": "attemptInfos",
      "outputs": [
        {
          "internalType": "uint32",
          "name": "attemptCount",
          "type": "uint32"
        },
        {
          "internalType": "uint256",
          "name": "lastAttemptTime",
          "type": "uint256"
        }
      ],
      "stateMutability": "view",
      "type": "function"
    },
    {
      "inputs": [
        {
          "internalType": "address",
          "name": "",
          "type": "address"
        },
        {
          "internalType": "uint256",
          "name": "",
          "type": "uint256"
        }
      ],
      "name": "certificates",
      "outputs": [
        {
          "internalType": "bool",
          "name": "",
          "type": "bool"
        }
      ],
      "stateMutability": "view",
      "type": "function"
    },
    {
      "inputs": [],
      "name": "confidentialProtocolId",
      "outputs": [
        {
          "internalType": "uint256",
          "name": "",
          "type": "uint256"
        }
      ],
      "stateMutability": "view",
      "type": "function"
    },
    {
      "inputs": [
        {
          "internalType": "string",
          "name": "title",
          "type": "string"
        },
        {
          "internalType": "string",
          "name": "description",
          "type": "string"
        },
        {
          "internalType": "string[]",
          "name": "questionTexts",
          "type": "string[]"
        },
        {
          "internalType": "enum CogniSeal.QuestionType[]",
          "name": "questionTypes",
          "type": "uint8[]"
        },
        {
          "internalType": "externalEuint32[]",
          "name": "encryptedAnswers",
          "type": "bytes32[]"
        },
        {
          "internalType": "bytes[]",
          "name": "inputProofs",
          "type": "bytes[]"
        },
        {
          "internalType": "uint32",
          "name": "passingScore",
          "type": "uint32"
        },
        {
          "internalType": "uint32",
          "name": "timeLimitMinutes",
          "type": "uint32"
        },
        {
          "internalType": "uint32",
          "name": "maxAttempts",
          "type": "uint32"
        },
        {
          "internalType": "uint32",
          "name": "cooldownMinutes",
          "type": "uint32"
        }
      ],
      "name": "createExam",
      "outputs": [
        {
          "internalType": "uint256",
          "name": "examId",
          "type": "uint256"
        }
      ],
      "stateMutability": "nonpayable",
      "type": "function"
    },
    {
      "inputs": [
        {
          "internalType": "uint256",
          "name": "",
          "type": "uint256"
        }
      ],
      "name": "exams",
      "outputs": [
        {
          "internalType": "uint256",
          "name": "examId",
          "type": "uint256"
        },
        {
          "internalType": "address",
          "name": "creator",
          "type": "address"
        },
        {
          "internalType": "string",
          "name": "title",
          "type": "string"
        },
        {
          "internalType": "string",
          "name": "description",
          "type": "string"
        },
        {
          "internalType": "uint32",
          "name": "passingScore",
          "type": "uint32"
        },
        {
          "internalType": "uint32",
          "name": "timeLimitMinutes",
          "type": "uint32"
        },
        {
          "internalType": "uint32",
          "name": "maxAttempts",
          "type": "uint32"
        },
        {
          "internalType": "uint32",
          "name": "cooldownMinutes",
          "type": "uint32"
        },
        {
          "internalType": "bool",
          "name": "isActive",
          "type": "bool"
        },
        {
          "internalType": "uint256",
          "name": "createdAt",
          "type": "uint256"
        }
      ],
      "stateMutability": "view",
      "type": "function"
    },
    {
      "inputs": [
        {
          "internalType": "address",
          "name": "examinee",
          "type": "address"
        },
        {
          "internalType": "uint256",
          "name": "examId",
          "type": "uint256"
        }
      ],
      "name": "getAttemptInfo",
      "outputs": [
        {
          "internalType": "uint32",
          "name": "attemptCount",
          "type": "uint32"
        },
        {
          "internalType": "uint256",
          "name": "lastAttemptTime",
          "type": "uint256"
        },
        {
          "internalType": "bool",
          "name": "canAttempt",
          "type": "bool"
        },
        {
          "internalType": "uint256",
          "name": "cooldownEndTime",
          "type": "uint256"
        }
      ],
      "stateMutability": "view",
      "type": "function"
    },
    {
      "inputs": [],
      "name": "getExamCount",
      "outputs": [
        {
          "internalType": "uint256",
          "name": "count",
          "type": "uint256"
        }
      ],
      "stateMutability": "view",
      "type": "function"
    },
    {
      "inputs": [
        {
          "internalType": "uint256",
          "name": "examId",
          "type": "uint256"
        }
      ],
      "name": "getExamInfo",
      "outputs": [
        {
          "internalType": "string",
          "name": "title",
          "type": "string"
        },
        {
          "internalType": "string",
          "name": "description",
          "type": "string"
        },
        {
          "internalType": "uint32",
          "name": "questionCount",
          "type": "uint32"
        },
        {
          "internalType": "uint32",
          "name": "passingScore",
          "type": "uint32"
        },
        {
          "internalType": "uint32",
          "name": "timeLimitMinutes",
          "type": "uint32"
        },
        {
          "internalType": "uint32",
          "name": "maxAttempts",
          "type": "uint32"
        },
        {
          "internalType": "uint32",
          "name": "cooldownMinutes",
          "type": "uint32"
        },
        {
          "internalType": "bool",
          "name": "isActive",
          "type": "bool"
        },
        {
          "internalType": "uint256",
          "name": "createdAt",
          "type": "uint256"
        }
      ],
      "stateMutability": "view",
      "type": "function"
    },
    {
      "inputs": [
        {
          "internalType": "uint256",
          "name": "examId",
          "type": "uint256"
        },
        {
          "internalType": "uint256",
          "name": "questionIndex",
          "type": "uint256"
        }
      ],
      "name": "getQuestion",
      "outputs": [
        {
          "internalType": "string",
          "name": "questionText",
          "type": "string"
        },
        {
          "internalType": "enum CogniSeal.QuestionType",
          "name": "questionType",
          "type": "uint8"
        }
      ],
      "stateMutability": "view",
      "type": "function"
    },
    {
      "inputs": [
        {
          "internalType": "uint256",
          "name": "submissionId",
          "type": "uint256"
        }
      ],
      "name": "getSubmissionScore",
      "outputs": [
        {
          "internalType": "euint32",
          "name": "encryptedScore",
          "type": "bytes32"
        }
      ],
      "stateMutability": "view",
      "type": "function"
    },
    {
      "inputs": [
        {
          "internalType": "address",
          "name": "examinee",
          "type": "address"
        },
        {
          "internalType": "uint256",
          "name": "examId",
          "type": "uint256"
        }
      ],
      "name": "hasCertificate",
      "outputs": [
        {
          "internalType": "bool",
          "name": "",
          "type": "bool"
        }
      ],
      "stateMutability": "view",
      "type": "function"
    },
    {
      "inputs": [
        {
          "internalType": "uint256",
          "name": "submissionId",
          "type": "uint256"
        },
        {
          "internalType": "uint256",
          "name": "examId",
          "type": "uint256"
        },
        {
          "internalType": "uint32",
          "name": "decryptedScore",
          "type": "uint32"
        },
        {
          "internalType": "bytes",
          "name": "",
          "type": "bytes"
        }
      ],
      "name": "mintCertificate",
      "outputs": [],
      "stateMutability": "nonpayable",
      "type": "function"
    },
    {
      "inputs": [
        {
          "internalType": "uint256",
          "name": "",
          "type": "uint256"
        }
      ],
      "name": "submissions",
      "outputs": [
        {
          "internalType": "address",
          "name": "examinee",
          "type": "address"
        },
        {
          "internalType": "uint256",
          "name": "examId",
          "type": "uint256"
        },
        {
          "internalType": "euint32",
          "name": "encryptedScore",
          "type": "bytes32"
        },
        {
          "internalType": "uint256",
          "name": "submittedAt",
          "type": "uint256"
        },
        {
          "internalType": "bool",
          "name": "isGraded",
          "type": "bool"
        }
      ],
      "stateMutability": "view",
      "type": "function"
    },
    {
      "inputs": [
        {
          "internalType": "uint256",
          "name": "examId",
          "type": "uint256"
        },
        {
          "internalType": "externalEuint32[]",
          "name": "encryptedAnswers",
          "type": "bytes32[]"
        },
        {
          "internalType": "bytes[]",
          "name": "inputProofs",
          "type": "bytes[]"
        }
      ],
      "name": "submitAnswers",
      "outputs": [
        {
          "internalType": "uint256",
          "name": "submissionId",
          "type": "uint256"
        }
      ],
      "stateMutability": "nonpayable",
      "type": "function"
    }
  ],
  "transactionHash": "0x3c5aba40034cc7e1138d93a76d582b83d831132fe9ca0b388f92149797666aa2",
  "args": [],
  "numDeployments": 1,
  "solcInputHash": "0c526a55964333b8b496278a51176267",
  "bytecode": "0x608060405234801561000f575f5ffd5b506100c461001b6100d1565b80517f9e7b61f58c47dc699ac88507c4f5bb9f121c03808c5676a8078fe583e464970080546001600160a01b03199081166001600160a01b039384161790915560208301517f9e7b61f58c47dc699ac88507c4f5bb9f121c03808c5676a8078fe583e46497018054831691841691909117905560408301517f9e7b61f58c47dc699ac88507c4f5bb9f121c03808c5676a8078fe583e46497028054909216921691909117905550565b60015f8190558055610240565b604080516060810182525f80825260208201819052918101919091524660010361012a575060408051606080820183525f8083526020808401829052928401819052835191820184528082529181018290529182015290565b4662aa36a7036101a9575060408051606080820183525f8083526020808401829052928401528251908101835273f0ffdc93b7e186bc2f8cb3daa75d86d1930a433d81527392c920834ec8941d2c77d188936e1f7a6f49c1279181019190915273be0e383937d564d7ff0bc3b46c51f0bf8d5c311a9181019190915290565b46617a6903610227575060408051606080820183525f8083526020808401829052928401528251908101835273f0ffdc93b7e186bc2f8cb3daa75d86d1930a433d81527392c920834ec8941d2c77d188936e1f7a6f49c1279181019190915273be0e383937d564d7ff0bc3b46c51f0bf8d5c311a9181019190915290565b6040516373cac13b60e01b815260040160405180910390fd5b6126078061024d5f395ff3fe608060405234801561000f575f5ffd5b50600436106100e5575f3560e01c8063ad73349e11610088578063ce0f947711610063578063ce0f9477146102a2578063decceddc146102b5578063e8d4336e1461030b578063ee49e11914610320575f5ffd5b8063ad73349e146101fc578063bc6d809414610279578063be5f60401461029a575f5ffd5b80634198cb3f116100c35780634198cb3f1461015e57806346f3141c14610187578063866f30b8146101b45780638927b030146101f4575f5ffd5b806308e412cb146100e95780630ce7ed981461011a578063226c4d5f1461013d575b5f5ffd5b6100fc6100f7366004611d5d565b610333565b60405161011199989796959493929190611da2565b60405180910390f35b61012d610128366004611e0c565b61053e565b6040519015158152602001610111565b61015061014b366004612004565b6105c8565b604051908152602001610111565b61017161016c366004611d5d565b6109bd565b6040516101119a99989796959493929190612071565b61012d610195366004611e0c565b600560209081525f928352604080842090915290825290205460ff1681565b6101c76101c2366004611e0c565b610b3b565b6040805163ffffffff90951685526020850193909352901515918301919091526060820152608001610111565b610150610c47565b61024561020a366004611d5d565b600360208190525f9182526040909120805460018201549282015460048301546005909301546001600160a01b039092169392909160ff1685565b604080516001600160a01b03909616865260208601949094529284019190915260608301521515608082015260a001610111565b61028c6102873660046120ed565b610c55565b604051610111929190612121565b610150610de7565b6101506102b0366004611d5d565b610df6565b6102ef6102c3366004611e0c565b600460209081525f92835260408084209091529082529020805460019091015463ffffffff9091169082565b6040805163ffffffff9093168352602083019190915201610111565b61031e61031936600461216a565b610eb8565b005b61015061032e36600461222e565b611159565b5f8181526002602052604081206001015460609182918190819081908190819081908a906001600160a01b03166103a75760405162461bcd60e51b8152602060048201526013602482015272115e185b48191bd95cc81b9bdd08195e1a5cdd606a1b60448201526064015b60405180910390fd5b5f8b815260026020819052604090912060048101546005820154600683015493830180549394909360038601939263ffffffff808216936401000000008304821693600160401b8404831693600160601b810490931692600160801b900460ff16919089906104159061237e565b80601f01602080910402602001604051908101604052809291908181526020018280546104419061237e565b801561048c5780601f106104635761010080835404028352916020019161048c565b820191905f5260205f20905b81548152906001019060200180831161046f57829003601f168201915b5050505050985087805461049f9061237e565b80601f01602080910402602001604051908101604052809291908181526020018280546104cb9061237e565b80156105165780601f106104ed57610100808354040283529160200191610516565b820191905f5260205f20905b8154815290600101906020018083116104f957829003601f168201915b505050505097509a509a509a509a509a509a509a509a509a5050509193959799909294969850565b5f8181526002602052604081206001015482906001600160a01b031661059c5760405162461bcd60e51b8152602060048201526013602482015272115e185b48191bd95cc81b9bdd08195e1a5cdd606a1b604482015260640161039e565b50506001600160a01b03919091165f908152600560209081526040808320938352929052205460ff1690565b5f8381526002602052604081206001015484906001600160a01b03166106265760405162461bcd60e51b8152602060048201526013602482015272115e185b48191bd95cc81b9bdd08195e1a5cdd606a1b604482015260640161039e565b5f858152600260205260409020600501548590600160801b900460ff1661068f5760405162461bcd60e51b815260206004820152601260248201527f4578616d206973206e6f74206163746976650000000000000000000000000000604482015260640161039e565b5f86815260026020526040902060048101548651146106f05760405162461bcd60e51b815260206004820152601660248201527f416e737765727320636f756e74206d69736d6174636800000000000000000000604482015260640161039e565b84518651146107415760405162461bcd60e51b815260206004820152601b60248201527f496e7075742070726f6f667320636f756e74206d69736d617463680000000000604482015260640161039e565b335f9081526004602090815260408083208a845290915290206005820154815463ffffffff600160401b90920482169116106107bf5760405162461bcd60e51b815260206004820152601860248201527f4d6178696d756d20617474656d70747320726561636865640000000000000000604482015260640161039e565b60018101541561084b5760058201545f906107e890600160601b900463ffffffff16603c6123ca565b82600101546107f791906123e1565b9050804210156108495760405162461bcd60e51b815260206004820152601960248201527f436f6f6c646f776e20706572696f64206e6f7420656e64656400000000000000604482015260640161039e565b505b805463ffffffff16815f61085e836123f4565b91906101000a81548163ffffffff021916908363ffffffff1602179055505042816001018190555060015f81548092919061089890612418565b909155505f818152600360205260408120805473ffffffffffffffffffffffffffffffffffffffff191633178155600181018b905542600482015560058101805460ff191690559196505b8851811015610961575f6109298a838151811061090257610902612430565b60200260200101518a848151811061091c5761091c612430565b6020026020010151611584565b90506109348161159a565b5061093f81336115a9565b50600283018054600181810183555f92835260209092200191909155016108e3565b50336001600160a01b031689877f76f470214df6e4d22e234d8905811ccfaf981e92bc1ac5a9a57186c2197dd3a94260405161099f91815260200190565b60405180910390a46109b1868a6115bb565b50505050509392505050565b600260208190525f918252604090912080546001820154928201805491936001600160a01b031692916109ef9061237e565b80601f0160208091040260200160405190810160405280929190818152602001828054610a1b9061237e565b8015610a665780601f10610a3d57610100808354040283529160200191610a66565b820191905f5260205f20905b815481529060010190602001808311610a4957829003601f168201915b505050505090806003018054610a7b9061237e565b80601f0160208091040260200160405190810160405280929190818152602001828054610aa79061237e565b8015610af25780601f10610ac957610100808354040283529160200191610af2565b820191905f5260205f20905b815481529060010190602001808311610ad557829003601f168201915b505050506005830154600690930154919263ffffffff80821693640100000000830482169350600160401b8304821692600160601b810490921691600160801b900460ff16908a565b5f8181526002602052604081206001015481908190819085906001600160a01b0316610b9f5760405162461bcd60e51b8152602060048201526013602482015272115e185b48191bd95cc81b9bdd08195e1a5cdd606a1b604482015260640161039e565b5f8681526002602090815260408083206001600160a01b038b168452600483528184208a855290925290912080546001820154600584015463ffffffff9283169950909750600160401b90041687108615610c33576005830154610c1190600160601b900463ffffffff16603c6123ca565b610c1b90886123e1565b945042851115818015610c2b5750805b965050610c3a565b5f94508095505b5050505092959194509250565b5f610c50611764565b905090565b5f828152600260205260408120600101546060919084906001600160a01b0316610cb75760405162461bcd60e51b8152602060048201526013602482015272115e185b48191bd95cc81b9bdd08195e1a5cdd606a1b604482015260640161039e565b5f85815260026020526040902060048101548510610d175760405162461bcd60e51b815260206004820152601c60248201527f5175657374696f6e20696e646578206f7574206f6620626f756e647300000000604482015260640161039e565b5f816004018681548110610d2d57610d2d612430565b905f5260205f209060030201905080600101815f015f9054906101000a900460ff16818054610d5b9061237e565b80601f0160208091040260200160405190810160405280929190818152602001828054610d879061237e565b8015610dd25780601f10610da957610100808354040283529160200191610dd2565b820191905f5260205f20905b815481529060010190602001808311610db557829003601f168201915b50505050509150945094505050509250929050565b5f60015f54610c509190612444565b5f81815260036020526040812080546001600160a01b0316610e5a5760405162461bcd60e51b815260206004820152601960248201527f5375626d697373696f6e20646f6573206e6f7420657869737400000000000000604482015260640161039e565b600581015460ff16610eae5760405162461bcd60e51b815260206004820152601360248201527f4578616d206e6f74206772616465642079657400000000000000000000000000604482015260640161039e565b6003015492915050565b5f8381526002602052604090206001015483906001600160a01b0316610f165760405162461bcd60e51b8152602060048201526013602482015272115e185b48191bd95cc81b9bdd08195e1a5cdd606a1b604482015260640161039e565b5f858152600360209081526040808320878452600290925290912081546001600160a01b03163314610f8a5760405162461bcd60e51b815260206004820152601060248201527f4e6f7420746865206578616d696e656500000000000000000000000000000000604482015260640161039e565b85826001015414610fdd5760405162461bcd60e51b815260206004820152601860248201527f5375626d697373696f6e206578616d206d69736d617463680000000000000000604482015260640161039e565b600582015460ff166110315760405162461bcd60e51b815260206004820152601360248201527f4578616d206e6f74206772616465642079657400000000000000000000000000604482015260640161039e565b335f90815260056020908152604080832089845290915290205460ff161561109b5760405162461bcd60e51b815260206004820152601a60248201527f436572746966696361746520616c7265616479206d696e746564000000000000604482015260640161039e565b600581015463ffffffff90811690861610156110f95760405162461bcd60e51b815260206004820152601d60248201527f53636f72652062656c6f772070617373696e67207468726573686f6c64000000604482015260640161039e565b335f8181526005602090815260408083208a8452825291829020805460ff19166001179055905189815288917f4d660303f3cf5c0e9d967870d281fc77f88bb1d50331ac1af95e18cce14ef1f9910160405180910390a350505050505050565b5f5f8951116111aa5760405162461bcd60e51b815260206004820152601f60248201527f4d7573742068617665206174206c65617374206f6e65207175657374696f6e00604482015260640161039e565b875189511480156111bc575086518951145b80156111c9575085518951145b6112155760405162461bcd60e51b815260206004820152601660248201527f417272617973206c656e677468206d69736d6174636800000000000000000000604482015260640161039e565b5f8563ffffffff16116112765760405162461bcd60e51b8152602060048201526024808201527f50617373696e672073636f7265206d75737420626520677265617465722074686044820152630616e20360e41b606482015260840161039e565b5f8463ffffffff16116112d55760405162461bcd60e51b815260206004820152602160248201527f54696d65206c696d6974206d7573742062652067726561746572207468616e206044820152600360fc1b606482015260840161039e565b5f8363ffffffff16116113365760405162461bcd60e51b815260206004820152602360248201527f4d617820617474656d707473206d75737420626520677265617465722074686160448201526206e20360ec1b606482015260840161039e565b5f8054908061134483612418565b909155505f81815260026020819052604090912082815560018101805473ffffffffffffffffffffffffffffffffffffffff191633179055919250810161138b8d8261249b565b506003810161139a8c8261249b565b50600581018054600160801b63ffffffff89811667ffffffffffffffff199093169290921764010000000089841602176fffffffffffffffff00000000000000001916600160401b888416026fffffffff000000000000000000000000191617600160601b928716929092029190911770ff0000000000000000000000000000000019161790554260068201555f5b8a5181101561152d575f6114488a838151811061090257610902612430565b90506114538161159a565b5061145e81336115a9565b508260040160405180606001604052808d858151811061148057611480612430565b602002602001015160018111156114995761149961210d565b81526020018e85815181106114b0576114b0612430565b60209081029190910181015182529081018490528254600181810185555f9485529190932082516003909402018054929390929091839160ff19169083818111156114fd576114fd61210d565b021790555060208201516001820190611516908261249b565b506040919091015160029091015550600101611429565b50336001600160a01b0316827f30365e88b6e1b35c66972cb4d9565fd1c6f35017a676108cee6ef7f8efea10558e8d518a60405161156d93929190612556565b60405180910390a3509a9950505050505050505050565b5f61159183836004611798565b90505b92915050565b5f6115a582306118ac565b5090565b5f6115b483836118ac565b5090919050565b5f8281526003602090815260408083208484526002909252909120600582015460ff161561162b5760405162461bcd60e51b815260206004820152600e60248201527f416c726561647920677261646564000000000000000000000000000000000000604482015260640161039e565b5f6116355f611935565b90505f5b60048301548110156116d6575f84600201828154811061165b5761165b612430565b905f5260205f20015490505f84600401838154811061167c5761167c612430565b905f5260205f2090600302016002015490505f6116998383611947565b90505f6116b8826116aa6001611935565b6116b35f611935565b611975565b90506116c486826119be565b95505060019093019250611639915050565b506003830181905560058301805460ff191660011790556116f68161159a565b50825461170d9082906001600160a01b03166115a9565b5082546040518281526001600160a01b0390911690859087907f784d1ffcc5e3b321f500a6a5337807ea82432377738e21b6e96b5e27ae291a1b9060200160405180910390a461175d85856119ec565b5050505050565b5f466001036117735750600190565b4662aa36a703611784575061271190565b46617a690361179357505f1990565b505f90565b7f9e7b61f58c47dc699ac88507c4f5bb9f121c03808c5676a8078fe583e46497015460405163045fc19560e11b81525f917f9e7b61f58c47dc699ac88507c4f5bb9f121c03808c5676a8078fe583e4649700916001600160a01b03909116906308bf832a90611811908890339089908990600401612599565b6020604051808303815f875af115801561182d573d5f5f3e3d5ffd5b505050506040513d601f19601f8201168201806040525081019061185191906125cf565b8154604051630f8e573b60e21b8152600481018390523360248201529193506001600160a01b031690633e395cec906044015f604051808303815f87803b15801561189a575f5ffd5b505af11580156109b1573d5f5f3e3d5ffd5b5f7f9e7b61f58c47dc699ac88507c4f5bb9f121c03808c5676a8078fe583e46497008054604051635ca4b5b160e11b8152600481018690526001600160a01b03858116602483015292935091169063b9496b62906044015f604051808303815f87803b15801561191a575f5ffd5b505af115801561192c573d5f5f3e3d5ffd5b50505050505050565b5f6115948263ffffffff166004611a2c565b5f82611959576119565f611935565b92505b8161196a576119675f611935565b91505b61159183835f611ae9565b5f83611987576119845f611be4565b93505b82611998576119955f611935565b92505b816119a9576119a65f611935565b91505b6119b4848484611bff565b90505b9392505050565b5f826119d0576119cd5f611935565b92505b816119e1576119de5f611935565b91505b61159183835f611ca8565b5f82815260036020908152604080832080546001600160a01b03168452600583528184208585529092529091205460ff1615611a2757505050565b505050565b7f9e7b61f58c47dc699ac88507c4f5bb9f121c03808c5676a8078fe583e464970154604051639cd07acb60e01b81525f917f9e7b61f58c47dc699ac88507c4f5bb9f121c03808c5676a8078fe583e4649700916001600160a01b0390911690639cd07acb90611aa190879087906004016125e6565b6020604051808303815f875af1158015611abd573d5f5f3e3d5ffd5b505050506040513d601f19601f82011682018060405250810190611ae191906125cf565b949350505050565b5f5f8215611afc5750600160f81b611aff565b505f5b7f9e7b61f58c47dc699ac88507c4f5bb9f121c03808c5676a8078fe583e46497015460405163f77f3f1d60e01b815260048101879052602481018690527fff00000000000000000000000000000000000000000000000000000000000000831660448201527f9e7b61f58c47dc699ac88507c4f5bb9f121c03808c5676a8078fe583e4649700916001600160a01b03169063f77f3f1d906064015b6020604051808303815f875af1158015611bb6573d5f5f3e3d5ffd5b505050506040513d601f19601f82011682018060405250810190611bda91906125cf565b9695505050505050565b5f61159482611bf3575f611bf6565b60015b60ff165f611a2c565b5f807f9e7b61f58c47dc699ac88507c4f5bb9f121c03808c5676a8078fe583e46497006001810154604051637702dcff60e01b81526004810188905260248101879052604481018690529192506001600160a01b031690637702dcff906064016020604051808303815f875af1158015611c7b573d5f5f3e3d5ffd5b505050506040513d601f19601f82011682018060405250810190611c9f91906125cf565b95945050505050565b5f5f8215611cbb5750600160f81b611cbe565b505f5b7f9e7b61f58c47dc699ac88507c4f5bb9f121c03808c5676a8078fe583e46497015460405163022f65e760e31b815260048101879052602481018690527fff00000000000000000000000000000000000000000000000000000000000000831660448201527f9e7b61f58c47dc699ac88507c4f5bb9f121c03808c5676a8078fe583e4649700916001600160a01b03169063117b2f3890606401611b9a565b5f60208284031215611d6d575f5ffd5b5035919050565b5f81518084528060208401602086015e5f602082860101526020601f19601f83011685010191505092915050565b61012081525f611db661012083018c611d74565b8281036020840152611dc8818c611d74565b63ffffffff9a8b166040850152988a1660608401525050948716608086015292861660a0850152941660c083015292151560e0820152610100019190915292915050565b5f5f60408385031215611e1d575f5ffd5b82356001600160a01b0381168114611e33575f5ffd5b946020939093013593505050565b634e487b7160e01b5f52604160045260245ffd5b604051601f8201601f1916810167ffffffffffffffff81118282101715611e7e57611e7e611e41565b604052919050565b5f67ffffffffffffffff821115611e9f57611e9f611e41565b5060051b60200190565b5f82601f830112611eb8575f5ffd5b8135611ecb611ec682611e86565b611e55565b8082825260208201915060208360051b860101925085831115611eec575f5ffd5b602085015b83811015611f09578035835260209283019201611ef1565b5095945050505050565b5f82601f830112611f22575f5ffd5b8135602083015f5f67ffffffffffffffff841115611f4257611f42611e41565b50601f8301601f1916602001611f5781611e55565b915050828152858383011115611f6b575f5ffd5b828260208301375f92810160200192909252509392505050565b5f82601f830112611f94575f5ffd5b8135611fa2611ec682611e86565b8082825260208201915060208360051b860101925085831115611fc3575f5ffd5b602085015b83811015611f0957803567ffffffffffffffff811115611fe6575f5ffd5b611ff5886020838a0101611f13565b84525060209283019201611fc8565b5f5f5f60608486031215612016575f5ffd5b83359250602084013567ffffffffffffffff811115612033575f5ffd5b61203f86828701611ea9565b925050604084013567ffffffffffffffff81111561205b575f5ffd5b61206786828701611f85565b9150509250925092565b8a81526001600160a01b038a16602082015261014060408201525f61209a61014083018b611d74565b82810360608401526120ac818b611d74565b63ffffffff998a16608085015297891660a0840152505093861660c08501529190941660e08301529215156101008201526101200191909152949350505050565b5f5f604083850312156120fe575f5ffd5b50508035926020909101359150565b634e487b7160e01b5f52602160045260245ffd5b604081525f6121336040830185611d74565b9050600283106121455761214561210d565b8260208301529392505050565b803563ffffffff81168114612165575f5ffd5b919050565b5f5f5f5f6080858703121561217d575f5ffd5b843593506020850135925061219460408601612152565b9150606085013567ffffffffffffffff8111156121af575f5ffd5b6121bb87828801611f13565b91505092959194509250565b5f82601f8301126121d6575f5ffd5b81356121e4611ec682611e86565b8082825260208201915060208360051b860101925085831115612205575f5ffd5b602085015b83811015611f0957803560028110612220575f5ffd5b83526020928301920161220a565b5f5f5f5f5f5f5f5f5f5f6101408b8d031215612248575f5ffd5b8a3567ffffffffffffffff81111561225e575f5ffd5b61226a8d828e01611f13565b9a505060208b013567ffffffffffffffff811115612286575f5ffd5b6122928d828e01611f13565b99505060408b013567ffffffffffffffff8111156122ae575f5ffd5b6122ba8d828e01611f85565b98505060608b013567ffffffffffffffff8111156122d6575f5ffd5b6122e28d828e016121c7565b97505060808b013567ffffffffffffffff8111156122fe575f5ffd5b61230a8d828e01611ea9565b96505060a08b013567ffffffffffffffff811115612326575f5ffd5b6123328d828e01611f85565b95505061234160c08c01612152565b935061234f60e08c01612152565b925061235e6101008c01612152565b915061236d6101208c01612152565b90509295989b9194979a5092959850565b600181811c9082168061239257607f821691505b6020821081036123b057634e487b7160e01b5f52602260045260245ffd5b50919050565b634e487b7160e01b5f52601160045260245ffd5b8082028115828204841417611594576115946123b6565b80820180821115611594576115946123b6565b5f63ffffffff821663ffffffff810361240f5761240f6123b6565b60010192915050565b5f60018201612429576124296123b6565b5060010190565b634e487b7160e01b5f52603260045260245ffd5b81810381811115611594576115946123b6565b601f821115611a2757805f5260205f20601f840160051c8101602085101561247c5750805b601f840160051c820191505b8181101561175d575f8155600101612488565b815167ffffffffffffffff8111156124b5576124b5611e41565b6124c9816124c3845461237e565b84612457565b6020601f8211600181146124fb575f83156124e45750848201515b5f19600385901b1c1916600184901b17845561175d565b5f84815260208120601f198516915b8281101561252a578785015182556020948501946001909201910161250a565b508482101561254757868401515f19600387901b60f8161c191681555b50505050600190811b01905550565b606081525f6125686060830186611d74565b63ffffffff94851660208401529290931660409091015292915050565b605481106125955761259561210d565b9052565b8481526001600160a01b0384166020820152608060408201525f6125c06080830185611d74565b9050611c9f6060830184612585565b5f602082840312156125df575f5ffd5b5051919050565b828152604081016119b7602083018461258556fea164736f6c634300081b000a",
  "devdoc": {
    "kind": "dev",
    "methods": {},
    "version": 1
  },
  "userdoc": {
    "errors": {
      "ZamaProtocolUnsupported()": [
        {
          "notice": "Returned if the Zama protocol is not supported on the current chain"
        }
      ]
    },
    "kind": "user",
    "methods": {},
    "version": 1
  },
  "storageLayout": {
    "storage": [
      {
        "astId": 39242,
        "contract": "contracts/CogniSeal.sol:CogniSeal",
        "label": "_nextExamId",
        "offset": 0,
        "slot": "0",
        "type": "t_uint256"
      },
      {
        "astId": 39244,
        "contract": "contracts/CogniSeal.sol:CogniSeal",
        "label": "_nextSubmissionId",
        "offset": 0,
        "slot": "1",
        "type": "t_uint256"
      },
      {
        "astId": 39249,
        "contract": "contracts/CogniSeal.sol:CogniSeal",
        "label": "exams",
        "offset": 0,
        "slot": "2",
        "type": "t_mapping(t_uint256,t_struct(Exam)39219_storage)"
      },
      {
        "astId": 39254,
        "contract": "contracts/CogniSeal.sol:CogniSeal",
        "label": "submissions",
        "offset": 0,
        "slot": "3",
        "type": "t_mapping(t_uint256,t_struct(Submission)39235_storage)"
      },
      {
        "astId": 39261,
        "contract": "contracts/CogniSeal.sol:CogniSeal",
        "label": "attemptInfos",
        "offset": 0,
        "slot": "4",
        "type": "t_mapping(t_address,t_mapping(t_uint256,t_struct(AttemptInfo)39240_storage))"
      },
      {
        "astId": 39267,
        "contract": "contracts/CogniSeal.sol:CogniSeal",
        "label": "certificates",
        "offset": 0,
        "slot": "5",
        "type": "t_mapping(t_address,t_mapping(t_uint256,t_bool))"
      }
    ],
    "types": {
      "t_address": {
        "encoding": "inplace",
        "label": "address",
        "numberOfBytes": "20"
      },
      "t_array(t_struct(Question)39194_storage)dyn_storage": {
        "base": "t_struct(Question)39194_storage",
        "encoding": "dynamic_array",
        "label": "struct CogniSeal.Question[]",
        "numberOfBytes": "32"
      },
      "t_array(t_userDefinedValueType(euint32)40426)dyn_storage": {
        "base": "t_userDefinedValueType(euint32)40426",
        "encoding": "dynamic_array",
        "label": "euint32[]",
        "numberOfBytes": "32"
      },
      "t_bool": {
        "encoding": "inplace",
        "label": "bool",
        "numberOfBytes": "1"
      },
      "t_enum(QuestionType)39185": {
        "encoding": "inplace",
        "label": "enum CogniSeal.QuestionType",
        "numberOfBytes": "1"
      },
      "t_mapping(t_address,t_mapping(t_uint256,t_bool))": {
        "encoding": "mapping",
        "key": "t_address",
        "label": "mapping(address => mapping(uint256 => bool))",
        "numberOfBytes": "32",
        "value": "t_mapping(t_uint256,t_bool)"
      },
      "t_mapping(t_address,t_mapping(t_uint256,t_struct(AttemptInfo)39240_storage))": {
        "encoding": "mapping",
        "key": "t_address",
        "label": "mapping(address => mapping(uint256 => struct CogniSeal.AttemptInfo))",
        "numberOfBytes": "32",
        "value": "t_mapping(t_uint256,t_struct(AttemptInfo)39240_storage)"
      },
      "t_mapping(t_uint256,t_bool)": {
        "encoding": "mapping",
        "key": "t_uint256",
        "label": "mapping(uint256 => bool)",
        "numberOfBytes": "32",
        "value": "t_bool"
      },
      "t_mapping(t_uint256,t_struct(AttemptInfo)39240_storage)": {
        "encoding": "mapping",
        "key": "t_uint256",
        "label": "mapping(uint256 => struct CogniSeal.AttemptInfo)",
        "numberOfBytes": "32",
        "value": "t_struct(AttemptInfo)39240_storage"
      },
      "t_mapping(t_uint256,t_struct(Exam)39219_storage)": {
        "encoding": "mapping",
        "key": "t_uint256",
        "label": "mapping(uint256 => struct CogniSeal.Exam)",
        "numberOfBytes": "32",
        "value": "t_struct(Exam)39219_storage"
      },
      "t_mapping(t_uint256,t_struct(Submission)39235_storage)": {
        "encoding": "mapping",
        "key": "t_uint256",
        "label": "mapping(uint256 => struct CogniSeal.Submission)",
        "numberOfBytes": "32",
        "value": "t_struct(Submission)39235_storage"
      },
      "t_string_storage": {
        "encoding": "bytes",
        "label": "string",
        "numberOfBytes": "32"
      },
      "t_struct(AttemptInfo)39240_storage": {
        "encoding": "inplace",
        "label": "struct CogniSeal.AttemptInfo",
        "members": [
          {
            "astId": 39237,
            "contract": "contracts/CogniSeal.sol:CogniSeal",
            "label": "attemptCount",
            "offset": 0,
            "slot": "0",
            "type": "t_uint32"
          },
          {
            "astId": 39239,
            "contract": "contracts/CogniSeal.sol:CogniSeal",
            "label": "lastAttemptTime",
            "offset": 0,
            "slot": "1",
            "type": "t_uint256"
          }
        ],
        "numberOfBytes": "64"
      },
      "t_struct(Exam)39219_storage": {
        "encoding": "inplace",
        "label": "struct CogniSeal.Exam",
        "members": [
          {
            "astId": 39196,
            "contract": "contracts/CogniSeal.sol:CogniSeal",
            "label": "examId",
            "offset": 0,
            "slot": "0",
            "type": "t_uint256"
          },
          {
            "astId": 39198,
            "contract": "contracts/CogniSeal.sol:CogniSeal",
            "label": "creator",
            "offset": 0,
            "slot": "1",
            "type": "t_address"
          },
          {
            "astId": 39200,
            "contract": "contracts/CogniSeal.sol:CogniSeal",
            "label": "title",
            "offset": 0,
            "slot": "2",
            "type": "t_string_storage"
          },
          {
            "astId": 39202,
            "contract": "contracts/CogniSeal.sol:CogniSeal",
            "label": "description",
            "offset": 0,
            "slot": "3",
            "type": "t_string_storage"
          },
          {
            "astId": 39206,
            "contract": "contracts/CogniSeal.sol:CogniSeal",
            "label": "questions",
            "offset": 0,
            "slot": "4",
            "type": "t_array(t_struct(Question)39194_storage)dyn_storage"
          },
          {
            "astId": 39208,
            "contract": "contracts/CogniSeal.sol:CogniSeal",
            "label": "passingScore",
            "offset": 0,
            "slot": "5",
            "type": "t_uint32"
          },
          {
            "astId": 39210,
            "contract": "contracts/CogniSeal.sol:CogniSeal",
            "label": "timeLimitMinutes",
            "offset": 4,
            "slot": "5",
            "type": "t_uint32"
          },
          {
            "astId": 39212,
            "contract": "contracts/CogniSeal.sol:CogniSeal",
            "label": "maxAttempts",
            "offset": 8,
            "slot": "5",
            "type": "t_uint32"
          },
          {
            "astId": 39214,
            "contract": "contracts/CogniSeal.sol:CogniSeal",
            "label": "cooldownMinutes",
            "offset": 12,
            "slot": "5",
            "type": "t_uint32"
          },
          {
            "astId": 39216,
            "contract": "contracts/CogniSeal.sol:CogniSeal",
            "label": "isActive",
            "offset": 16,
            "slot": "5",
            "type": "t_bool"
          },
          {
            "astId": 39218,
            "contract": "contracts/CogniSeal.sol:CogniSeal",
            "label": "createdAt",
            "offset": 0,
            "slot": "6",
            "type": "t_uint256"
          }
        ],
        "numberOfBytes": "224"
      },
      "t_struct(Question)39194_storage": {
        "encoding": "inplace",
        "label": "struct CogniSeal.Question",
        "members": [
          {
            "astId": 39188,
            "contract": "contracts/CogniSeal.sol:CogniSeal",
            "label": "questionType",
            "offset": 0,
            "slot": "0",
            "type": "t_enum(QuestionType)39185"
          },
          {
            "astId": 39190,
            "contract": "contracts/CogniSeal.sol:CogniSeal",
            "label": "questionText",
            "offset": 0,
            "slot": "1",
            "type": "t_string_storage"
          },
          {
            "astId": 39193,
            "contract": "contracts/CogniSeal.sol:CogniSeal",
            "label": "encryptedAnswer",
            "offset": 0,
            "slot": "2",
            "type": "t_userDefinedValueType(euint32)40426"
          }
        ],
        "numberOfBytes": "96"
      },
      "t_struct(Submission)39235_storage": {
        "encoding": "inplace",
        "label": "struct CogniSeal.Submission",
        "members": [
          {
            "astId": 39221,
            "contract": "contracts/CogniSeal.sol:CogniSeal",
            "label": "examinee",
            "offset": 0,
            "slot": "0",
            "type": "t_address"
          },
          {
            "astId": 39223,
            "contract": "contracts/CogniSeal.sol:CogniSeal",
            "label": "examId",
            "offset": 0,
            "slot": "1",
            "type": "t_uint256"
          },
          {
            "astId": 39227,
            "contract": "contracts/CogniSeal.sol:CogniSeal",
            "label": "encryptedAnswers",
            "offset": 0,
            "slot": "2",
            "type": "t_array(t_userDefinedValueType(euint32)40426)dyn_storage"
          },
          {
            "astId": 39230,
            "contract": "contracts/CogniSeal.sol:CogniSeal",
            "label": "encryptedScore",
            "offset": 0,
            "slot": "3",
            "type": "t_userDefinedValueType(euint32)40426"
          },
          {
            "astId": 39232,
            "contract": "contracts/CogniSeal.sol:CogniSeal",
            "label": "submittedAt",
            "offset": 0,
            "slot": "4",
            "type": "t_uint256"
          },
          {
            "astId": 39234,
            "contract": "contracts/CogniSeal.sol:CogniSeal",
            "label": "isGraded",
            "offset": 0,
            "slot": "5",
            "type": "t_bool"
          }
        ],
        "numberOfBytes": "192"
      },
      "t_uint256": {
        "encoding": "inplace",
        "label": "uint256",
        "numberOfBytes": "32"
      },
      "t_uint32": {
        "encoding": "inplace",
        "label": "uint32",
        "numberOfBytes": "4"
      },
      "t_userDefinedValueType(euint32)40426": {
        "encoding": "inplace",
        "label": "euint32",
        "numberOfBytes": "32"
      }
    }
  }
}